{"abi":[{"type":"function","name":"hasSanctionsCheck","inputs":[{"name":"wallet","type":"address","internalType":"address"}],"outputs":[{"name":"","type":"bool","internalType":"bool"}],"stateMutability":"view"},{"type":"function","name":"hasSourceOfFunds","inputs":[{"name":"wallet","type":"address","internalType":"address"}],"outputs":[{"name":"","type":"bool","internalType":"bool"}],"stateMutability":"view"},{"type":"function","name":"sanctionsRef","inputs":[{"name":"","type":"address","internalType":"address"}],"outputs":[{"name":"","type":"bytes32","internalType":"bytes32"}],"stateMutability":"view"},{"type":"function","name":"setSanctionsCheck","inputs":[{"name":"wallet","type":"address","internalType":"address"},{"name":"ref","type":"bytes32","internalType":"bytes32"}],"outputs":[],"stateMutability":"nonpayable"},{"type":"function","name":"setSourceOfFunds","inputs":[{"name":"wallet","type":"address","internalType":"address"},{"name":"ref","type":"bytes32","internalType":"bytes32"}],"outputs":[],"stateMutability":"nonpayable"},{"type":"function","name":"sourceOfFundsRef","inputs":[{"name":"","type":"address","internalType":"address"}],"outputs":[{"name":"","type":"bytes32","internalType":"bytes32"}],"stateMutability":"view"}],"bytecode":{"object":"0x6080604052348015600e575f5ffd5b506104308061001c5f395ff3fe608060405234801561000f575f5ffd5b5060043610610060575f3560e01c80632913b56714610064578063488da3fc1461009457806391dce0c2146100c4578063a3a4e2d6146100f4578063d408914414610124578063f44577ce14610140575b5f5ffd5b61007e60048036038101906100799190610303565b61015c565b60405161008b9190610346565b60405180910390f35b6100ae60048036038101906100a99190610303565b610171565b6040516100bb9190610346565b60405180910390f35b6100de60048036038101906100d99190610303565b610185565b6040516100eb9190610379565b60405180910390f35b61010e60048036038101906101099190610303565b6101cf565b60405161011b9190610379565b60405180910390f35b61013e600480360381019061013991906103bc565b61021a565b005b61015a600480360381019061015591906103bc565b61025f565b005b6001602052805f5260405f205f915090505481565b5f602052805f5260405f205f915090505481565b5f5f5f1b5f5f8473ffffffffffffffffffffffffffffffffffffffff1673ffffffffffffffffffffffffffffffffffffffff1681526020019081526020015f205414159050919050565b5f5f5f1b60015f8473ffffffffffffffffffffffffffffffffffffffff1673ffffffffffffffffffffffffffffffffffffffff1681526020019081526020015f205414159050919050565b805f5f8473ffffffffffffffffffffffffffffffffffffffff1673ffffffffffffffffffffffffffffffffffffffff1681526020019081526020015f20819055505050565b8060015f8473ffffffffffffffffffffffffffffffffffffffff1673ffffffffffffffffffffffffffffffffffffffff1681526020019081526020015f20819055505050565b5f5ffd5b5f73ffffffffffffffffffffffffffffffffffffffff82169050919050565b5f6102d2826102a9565b9050919050565b6102e2816102c8565b81146102ec575f5ffd5b50565b5f813590506102fd816102d9565b92915050565b5f60208284031215610318576103176102a5565b5b5f610325848285016102ef565b91505092915050565b5f819050919050565b6103408161032e565b82525050565b5f6020820190506103595f830184610337565b92915050565b5f8115159050919050565b6103738161035f565b82525050565b5f60208201905061038c5f83018461036a565b92915050565b61039b8161032e565b81146103a5575f5ffd5b50565b5f813590506103b681610392565b92915050565b5f5f604083850312156103d2576103d16102a5565b5b5f6103df858286016102ef565b92505060206103f0858286016103a8565b915050925092905056fea264697066735822122026c7b50d1361093f557a0cb32d36df72faa61dbcd79e17c8f8e6bccfa535bb3464736f6c63430008210033","linkReferences":{}},"methodIdentifiers":{"hasSanctionsCheck(address)":"a3a4e2d6","hasSourceOfFunds(address)":"91dce0c2","sanctionsRef(address)":"2913b567","setSanctionsCheck(address,bytes32)":"f44577ce","setSourceOfFunds(address,bytes32)":"d4089144","sourceOfFundsRef(address)":"488da3fc"},"id":16}