{"abi":[{"type":"constructor","inputs":[{"name":"_threshold","type":"uint256","internalType":"uint256"}],"stateMutability":"nonpayable"},{"type":"function","name":"POLICY_ID","inputs":[],"outputs":[{"name":"","type":"bytes32","internalType":"bytes32"}],"stateMutability":"view"},{"type":"function","name":"REASON_MISSING","inputs":[],"outputs":[{"name":"","type":"bytes32","internalType":"bytes32"}],"stateMutability":"view"},{"type":"function","name":"evaluate","inputs":[{"name":"ctx","type":"tuple","internalType":"struct IPolicySimple.TxContext","components":[{"name":"token","type":"address","internalType":"address"},{"name":"from","type":"address","internalType":"address"},{"name":"to","type":"address","internalType":"address"},{"name":"amount","type":"uint256","internalType":"uint256"},{"name":"extraData","type":"bytes","internalType":"bytes"}]},{"name":"identityRegistry","type":"address","internalType":"address"}],"outputs":[{"name":"","type":"tuple","internalType":"struct IPolicySimple.PolicyResult","components":[{"name":"policyId","type":"bytes32","internalType":"bytes32"},{"name":"status","type":"uint8","internalType":"enum IPolicySimple.Status"},{"name":"reason","type":"bytes32","internalType":"bytes32"}]}],"stateMutability":"view"},{"type":"function","name":"policyId","inputs":[],"outputs":[{"name":"","type":"bytes32","internalType":"bytes32"}],"stateMutability":"pure"},{"type":"function","name":"threshold","inputs":[],"outputs":[{"name":"","type":"uint256","internalType":"uint256"}],"stateMutability":"view"}],"bytecode":{"object":"0x6080604052348015600e575f5ffd5b5060405161070c38038061070c8339818101604052810190602e9190606b565b805f81905550506091565b5f5ffd5b5f819050919050565b604d81603d565b81146056575f5ffd5b50565b5f815190506065816046565b92915050565b5f60208284031215607d57607c6039565b5b5f6088848285016059565b91505092915050565b61066e8061009e5f395ff3fe608060405234801561000f575f5ffd5b5060043610610055575f3560e01c806342cde4e8146100595780635756eb0a14610077578063d187b6fb146100a7578063db4ef9a6146100c5578063ee89ef3a146100e3575b5f5ffd5b610061610101565b60405161006e9190610382565b60405180910390f35b610091600480360381019061008c919061041f565b610106565b60405161009e9190610544565b60405180910390f35b6100af6102cb565b6040516100bc919061056c565b60405180910390f35b6100cd6102ef565b6040516100da919061056c565b60405180910390f35b6100eb610313565b6040516100f8919061056c565b60405180910390f35b5f5481565b61010e61033a565b5f548360600135116101705760405180606001604052807ff6bc88f65334576819f221ef37b9783d860e03fc03db5319a3870919c0b3e60781526020015f600281111561015e5761015d610491565b5b81526020015f5f1b81525090506102c5565b8173ffffffffffffffffffffffffffffffffffffffff166391dce0c284602001602081019061019f9190610585565b6040518263ffffffff1660e01b81526004016101bb91906105bf565b602060405180830381865afa1580156101d6573d5f5f3e3d5ffd5b505050506040513d601f19601f820116820180604052508101906101fa919061060d565b156102555760405180606001604052807ff6bc88f65334576819f221ef37b9783d860e03fc03db5319a3870919c0b3e60781526020015f600281111561024357610242610491565b5b81526020015f5f1b81525090506102c5565b60405180606001604052807ff6bc88f65334576819f221ef37b9783d860e03fc03db5319a3870919c0b3e607815260200160028081111561029957610298610491565b5b81526020017f4d495353494e475f534f555243455f4f465f46554e445300000000000000000081525090505b92915050565b7f4d495353494e475f534f555243455f4f465f46554e445300000000000000000081565b7ff6bc88f65334576819f221ef37b9783d860e03fc03db5319a3870919c0b3e60781565b5f7ff6bc88f65334576819f221ef37b9783d860e03fc03db5319a3870919c0b3e607905090565b60405180606001604052805f81526020015f600281111561035e5761035d610491565b5b81526020015f81525090565b5f819050919050565b61037c8161036a565b82525050565b5f6020820190506103955f830184610373565b92915050565b5f5ffd5b5f5ffd5b5f5ffd5b5f60a082840312156103bc576103bb6103a3565b5b81905092915050565b5f73ffffffffffffffffffffffffffffffffffffffff82169050919050565b5f6103ee826103c5565b9050919050565b6103fe816103e4565b8114610408575f5ffd5b50565b5f81359050610419816103f5565b92915050565b5f5f604083850312156104355761043461039b565b5b5f83013567ffffffffffffffff8111156104525761045161039f565b5b61045e858286016103a7565b925050602061046f8582860161040b565b9150509250929050565b5f819050919050565b61048b81610479565b82525050565b7f4e487b71000000000000000000000000000000000000000000000000000000005f52602160045260245ffd5b600381106104cf576104ce610491565b5b50565b5f8190506104df826104be565b919050565b5f6104ee826104d2565b9050919050565b6104fe816104e4565b82525050565b606082015f8201516105185f850182610482565b50602082015161052b60208501826104f5565b50604082015161053e6040850182610482565b50505050565b5f6060820190506105575f830184610504565b92915050565b61056681610479565b82525050565b5f60208201905061057f5f83018461055d565b92915050565b5f6020828403121561059a5761059961039b565b5b5f6105a78482850161040b565b91505092915050565b6105b9816103e4565b82525050565b5f6020820190506105d25f8301846105b0565b92915050565b5f8115159050919050565b6105ec816105d8565b81146105f6575f5ffd5b50565b5f81519050610607816105e3565b92915050565b5f602082840312156106225761062161039b565b5b5f61062f848285016105f9565b9150509291505056fea2646970667358221220b4f372f48a7636d1fba4c85c0642b2384713cd70fbb4f46c84d0fd376e3de03d64736f6c63430008210033","linkReferences":{}},"methodIdentifiers":{"POLICY_ID()":"db4ef9a6","REASON_MISSING()":"d187b6fb","evaluate((address,address,address,uint256,bytes),address)":"5756eb0a","policyId()":"ee89ef3a","threshold()":"42cde4e8"},"id":22}