{"abi":[{"type":"constructor","inputs":[{"name":"_identityRegistry","type":"address","internalType":"address"}],"stateMutability":"nonpayable"},{"type":"function","name":"addPolicy","inputs":[{"name":"policy","type":"address","internalType":"address"}],"outputs":[],"stateMutability":"nonpayable"},{"type":"function","name":"identityRegistry","inputs":[],"outputs":[{"name":"","type":"address","internalType":"address"}],"stateMutability":"view"},{"type":"function","name":"policies","inputs":[{"name":"","type":"uint256","internalType":"uint256"}],"outputs":[{"name":"","type":"address","internalType":"contract IPolicySimple"}],"stateMutability":"view"},{"type":"function","name":"runPolicies","inputs":[{"name":"ctx","type":"tuple","internalType":"struct IPolicySimple.TxContext","components":[{"name":"token","type":"address","internalType":"address"},{"name":"from","type":"address","internalType":"address"},{"name":"to","type":"address","internalType":"address"},{"name":"amount","type":"uint256","internalType":"uint256"},{"name":"extraData","type":"bytes","internalType":"bytes"}]}],"outputs":[{"name":"overallStatus","type":"uint8","internalType":"enum IPolicySimple.Status"},{"name":"results","type":"tuple[]","internalType":"struct IPolicySimple.PolicyResult[]","components":[{"name":"policyId","type":"bytes32","internalType":"bytes32"},{"name":"status","type":"uint8","internalType":"enum IPolicySimple.Status"},{"name":"reason","type":"bytes32","internalType":"bytes32"}]}],"stateMutability":"view"}],"bytecode":{"object":"0x608060405234801561000f575f5ffd5b50604051610c6a380380610c6a833981810160405281019061003191906100d4565b805f5f6101000a81548173ffffffffffffffffffffffffffffffffffffffff021916908373ffffffffffffffffffffffffffffffffffffffff160217905550506100ff565b5f5ffd5b5f73ffffffffffffffffffffffffffffffffffffffff82169050919050565b5f6100a38261007a565b9050919050565b6100b381610099565b81146100bd575f5ffd5b50565b5f815190506100ce816100aa565b92915050565b5f602082840312156100e9576100e8610076565b5b5f6100f6848285016100c0565b91505092915050565b610b5e8061010c5f395ff3fe608060405234801561000f575f5ffd5b506004361061004a575f3560e01c8063134e18f41461004e57806376031ed31461006c578063b84ef0811461009d578063d3e89483146100b9575b5f5ffd5b6100566100e9565b604051610063919061045f565b60405180910390f35b610086600480360381019061008191906104ab565b61010d565b604051610094929190610674565b60405180910390f35b6100b760048036038101906100b291906106cc565b610352565b005b6100d360048036038101906100ce919061072a565b6103b5565b6040516100e091906107b0565b60405180910390f35b5f5f9054906101000a900473ffffffffffffffffffffffffffffffffffffffff1681565b5f606060018054905067ffffffffffffffff81111561012f5761012e6107c9565b5b60405190808252806020026020018201604052801561016857816020015b6101556103f0565b81526020019060019003908161014d5790505b5090505f5f90505f5f90505f5f90505b6001805490508110156103275760018181548110610199576101986107f6565b5b905f5260205f20015f9054906101000a900473ffffffffffffffffffffffffffffffffffffffff1673ffffffffffffffffffffffffffffffffffffffff16635756eb0a875f5f9054906101000a900473ffffffffffffffffffffffffffffffffffffffff166040518363ffffffff1660e01b815260040161021b9291906109d2565b606060405180830381865afa158015610236573d5f5f3e3d5ffd5b505050506040513d601f19601f8201168201806040525081019061025a9190610afd565b84828151811061026d5761026c6107f6565b5b60200260200101819052506001600281111561028c5761028b6104f2565b5b84828151811061029f5761029e6107f6565b5b60200260200101516020015160028111156102bd576102bc6104f2565b5b036102cb576001925061031a565b6002808111156102de576102dd6104f2565b5b8482815181106102f1576102f06107f6565b5b602002602001015160200151600281111561030f5761030e6104f2565b5b0361031957600191505b5b8080600101915050610178565b508115610337576001935061034b565b8015610346576002935061034a565b5f93505b5b5050915091565b600181908060018154018082558091505060019003905f5260205f20015f9091909190916101000a81548173ffffffffffffffffffffffffffffffffffffffff021916908373ffffffffffffffffffffffffffffffffffffffff16021790555050565b600181815481106103c4575f80fd5b905f5260205f20015f915054906101000a900473ffffffffffffffffffffffffffffffffffffffff1681565b60405180606001604052805f81526020015f6002811115610414576104136104f2565b5b81526020015f81525090565b5f73ffffffffffffffffffffffffffffffffffffffff82169050919050565b5f61044982610420565b9050919050565b6104598161043f565b82525050565b5f6020820190506104725f830184610450565b92915050565b5f604051905090565b5f5ffd5b5f5ffd5b5f5ffd5b5f60a082840312156104a2576104a1610489565b5b81905092915050565b5f602082840312156104c0576104bf610481565b5b5f82013567ffffffffffffffff8111156104dd576104dc610485565b5b6104e98482850161048d565b91505092915050565b7f4e487b71000000000000000000000000000000000000000000000000000000005f52602160045260245ffd5b600381106105305761052f6104f2565b5b50565b5f8190506105408261051f565b919050565b5f61054f82610533565b9050919050565b61055f81610545565b82525050565b5f81519050919050565b5f82825260208201905092915050565b5f819050602082019050919050565b5f819050919050565b6105a08161058e565b82525050565b6105af81610545565b82525050565b606082015f8201516105c95f850182610597565b5060208201516105dc60208501826105a6565b5060408201516105ef6040850182610597565b50505050565b5f61060083836105b5565b60608301905092915050565b5f602082019050919050565b5f61062282610565565b61062c818561056f565b93506106378361057f565b805f5b8381101561066757815161064e88826105f5565b97506106598361060c565b92505060018101905061063a565b5085935050505092915050565b5f6040820190506106875f830185610556565b81810360208301526106998184610618565b90509392505050565b6106ab8161043f565b81146106b5575f5ffd5b50565b5f813590506106c6816106a2565b92915050565b5f602082840312156106e1576106e0610481565b5b5f6106ee848285016106b8565b91505092915050565b5f819050919050565b610709816106f7565b8114610713575f5ffd5b50565b5f8135905061072481610700565b92915050565b5f6020828403121561073f5761073e610481565b5b5f61074c84828501610716565b91505092915050565b5f819050919050565b5f61077861077361076e84610420565b610755565b610420565b9050919050565b5f6107898261075e565b9050919050565b5f61079a8261077f565b9050919050565b6107aa81610790565b82525050565b5f6020820190506107c35f8301846107a1565b92915050565b7f4e487b71000000000000000000000000000000000000000000000000000000005f52604160045260245ffd5b7f4e487b71000000000000000000000000000000000000000000000000000000005f52603260045260245ffd5b5f61083160208401846106b8565b905092915050565b6108428161043f565b82525050565b5f6108566020840184610716565b905092915050565b610867816106f7565b82525050565b5f5ffd5b5f5ffd5b5f5ffd5b5f5f8335600160200384360303811261089557610894610875565b5b83810192508235915060208301925067ffffffffffffffff8211156108bd576108bc61086d565b5b6001820236038313156108d3576108d2610871565b5b509250929050565b5f82825260208201905092915050565b828183375f83830152505050565b5f601f19601f8301169050919050565b5f61091483856108db565b93506109218385846108eb565b61092a836108f9565b840190509392505050565b5f60a083016109465f840184610823565b6109525f860182610839565b506109606020840184610823565b61096d6020860182610839565b5061097b6040840184610823565b6109886040860182610839565b506109966060840184610848565b6109a3606086018261085e565b506109b16080840184610879565b85830360808701526109c4838284610909565b925050508091505092915050565b5f6040820190508181035f8301526109ea8185610935565b90506109f96020830184610450565b9392505050565b5f5ffd5b610a0d826108f9565b810181811067ffffffffffffffff82111715610a2c57610a2b6107c9565b5b80604052505050565b5f610a3e610478565b9050610a4a8282610a04565b919050565b610a588161058e565b8114610a62575f5ffd5b50565b5f81519050610a7381610a4f565b92915050565b60038110610a85575f5ffd5b50565b5f81519050610a9681610a79565b92915050565b5f60608284031215610ab157610ab0610a00565b5b610abb6060610a35565b90505f610aca84828501610a65565b5f830152506020610add84828501610a88565b6020830152506040610af184828501610a65565b60408301525092915050565b5f60608284031215610b1257610b11610481565b5b5f610b1f84828501610a9c565b9150509291505056fea2646970667358221220ffdb220600605137e90197473a73a2410254aee68259f08c4cc7eedcb47c5eff64736f6c63430008210033","linkReferences":{}},"methodIdentifiers":{"addPolicy(address)":"b84ef081","identityRegistry()":"134e18f4","policies(uint256)":"d3e89483","runPolicies((address,address,address,uint256,bytes))":"76031ed3"},"id":21}