{"abi":[{"type":"constructor","inputs":[{"name":"_token","type":"address","internalType":"address"},{"name":"_policyManager","type":"address","internalType":"address"}],"stateMutability":"nonpayable"},{"type":"function","name":"admin","inputs":[],"outputs":[{"name":"","type":"address","internalType":"address"}],"stateMutability":"view"},{"type":"function","name":"attestations","inputs":[{"name":"","type":"bytes32","internalType":"bytes32"}],"outputs":[{"name":"status","type":"uint8","internalType":"enum IPolicySimple.Status"},{"name":"timestamp","type":"uint256","internalType":"uint256"}],"stateMutability":"view"},{"type":"function","name":"calculateTransactionId","inputs":[{"name":"from","type":"address","internalType":"address"},{"name":"to","type":"address","internalType":"address"},{"name":"amount","type":"uint256","internalType":"uint256"},{"name":"nonce","type":"bytes32","internalType":"bytes32"}],"outputs":[{"name":"","type":"bytes32","internalType":"bytes32"}],"stateMutability":"pure"},{"type":"function","name":"getAttestation","inputs":[{"name":"transactionId","type":"bytes32","internalType":"bytes32"}],"outputs":[{"name":"","type":"uint8","internalType":"enum IPolicySimple.Status"},{"name":"","type":"tuple[]","internalType":"struct IPolicySimple.PolicyResult[]","components":[{"name":"policyId","type":"bytes32","internalType":"bytes32"},{"name":"status","type":"uint8","internalType":"enum IPolicySimple.Status"},{"name":"reason","type":"bytes32","internalType":"bytes32"}]}],"stateMutability":"view"},{"type":"function","name":"payWithAuthorization","inputs":[{"name":"from","type":"address","internalType":"address"},{"name":"to","type":"address","internalType":"address"},{"name":"value","type":"uint256","internalType":"uint256"},{"name":"validAfter","type":"uint256","internalType":"uint256"},{"name":"validBefore","type":"uint256","internalType":"uint256"},{"name":"nonce","type":"bytes32","internalType":"bytes32"},{"name":"v","type":"uint8","internalType":"uint8"},{"name":"r","type":"bytes32","internalType":"bytes32"},{"name":"s","type":"bytes32","internalType":"bytes32"}],"outputs":[],"stateMutability":"nonpayable"},{"type":"function","name":"policyManager","inputs":[],"outputs":[{"name":"","type":"address","internalType":"contract SimplePolicyManager"}],"stateMutability":"view"},{"type":"function","name":"resolvePending","inputs":[{"name":"transactionId","type":"bytes32","internalType":"bytes32"},{"name":"failNow","type":"bool","internalType":"bool"}],"outputs":[],"stateMutability":"nonpayable"},{"type":"function","name":"token","inputs":[],"outputs":[{"name":"","type":"address","internalType":"contract DemoSGD"}],"stateMutability":"view"},{"type":"event","name":"TransactionAttested","inputs":[{"name":"transactionId","type":"bytes32","indexed":true,"internalType":"bytes32"},{"name":"status","type":"uint8","indexed":false,"internalType":"enum IPolicySimple.Status"}],"anonymous":false},{"type":"event","name":"TransactionCompleted","inputs":[{"name":"transactionId","type":"bytes32","indexed":true,"internalType":"bytes32"},{"name":"from","type":"address","indexed":true,"internalType":"address"},{"name":"to","type":"address","indexed":true,"internalType":"address"},{"name":"amount","type":"uint256","indexed":false,"internalType":"uint256"}],"anonymous":false}],"bytecode":{"object":"0x608060405234801561000f575f5ffd5b506040516117e03803806117e083398181016040528101906100319190610155565b815f5f6101000a81548173ffffffffffffffffffffffffffffffffffffffff021916908373ffffffffffffffffffffffffffffffffffffffff1602179055508060015f6101000a81548173ffffffffffffffffffffffffffffffffffffffff021916908373ffffffffffffffffffffffffffffffffffffffff1602179055503360035f6101000a81548173ffffffffffffffffffffffffffffffffffffffff021916908373ffffffffffffffffffffffffffffffffffffffff1602179055505050610193565b5f5ffd5b5f73ffffffffffffffffffffffffffffffffffffffff82169050919050565b5f610124826100fb565b9050919050565b6101348161011a565b811461013e575f5ffd5b50565b5f8151905061014f8161012b565b92915050565b5f5f6040838503121561016b5761016a6100f7565b5b5f61017885828601610141565b925050602061018985828601610141565b9150509250929050565b611640806101a05f395ff3fe608060405234801561000f575f5ffd5b5060043610610086575f3560e01c8063ab3dbf3b11610059578063ab3dbf3b14610124578063d68e081114610142578063f851a44014610172578063fc0c546a1461019057610086565b806371d5bf071461008a578063940992a3146100a65780639ec8f651146100d7578063a3112a64146100f3575b5f5ffd5b6100a4600480360381019061009f9190610a9a565b6101ae565b005b6100c060048036038101906100bb9190610b5e565b610661565b6040516100ce929190610c0b565b60405180910390f35b6100f160048036038101906100ec9190610c67565b61068d565b005b61010d60048036038101906101089190610b5e565b610815565b60405161011b929190610dab565b60405180910390f35b61012c6108ed565b6040516101399190610e34565b60405180910390f35b61015c60048036038101906101579190610e4d565b610912565b6040516101699190610ec0565b60405180910390f35b61017a61094a565b6040516101879190610ee8565b60405180910390f35b61019861096f565b6040516101a59190610f21565b60405180910390f35b5f6101bb8a8a8a88610912565b90505f6040518060a001604052805f5f9054906101000a900473ffffffffffffffffffffffffffffffffffffffff1673ffffffffffffffffffffffffffffffffffffffff1681526020018c73ffffffffffffffffffffffffffffffffffffffff1681526020018b73ffffffffffffffffffffffffffffffffffffffff1681526020018a815260200160405180602001604052805f81525081525090505f5f60015f9054906101000a900473ffffffffffffffffffffffffffffffffffffffff1673ffffffffffffffffffffffffffffffffffffffff166376031ed3846040518263ffffffff1660e01b81526004016102b3919061103b565b5f60405180830381865afa1580156102cd573d5f5f3e3d5ffd5b505050506040513d5f823e3d601f19601f820116820180604052508101906102f59190611237565b915091505f60025f8681526020019081526020015f20905082815f015f6101000a81548160ff0219169083600281111561033257610331610b89565b5b02179055505f5f90505b82518110156103da578160010183828151811061035c5761035b611291565b5b6020026020010151908060018154018082558091505060019003905f5260205f2090600302015f909190919091505f820151815f01556020820151816001015f6101000a81548160ff021916908360028111156103bc576103bb610b89565b5b0217905550604082015181600201555050808060010191505061033c565b50428160020181905550847f6e96131bfb5bb670b97602baedf459f6825cf7c95f42455455220745dbafd75f8460405161041491906112be565b60405180910390a2600160028111156104305761042f610b89565b5b83600281111561044357610442610b89565b5b03610483576040517f08c379a000000000000000000000000000000000000000000000000000000000815260040161047a90611331565b60405180910390fd5b60028081111561049657610495610b89565b5b8360028111156104a9576104a8610b89565b5b036104b8575050505050610656565b5f5f9054906101000a900473ffffffffffffffffffffffffffffffffffffffff1673ffffffffffffffffffffffffffffffffffffffff1663e3ee160e8f308f8f8f8f8f8f8f6040518a63ffffffff1660e01b81526004016105219998979695949392919061135e565b5f604051808303815f87803b158015610538575f5ffd5b505af115801561054a573d5f5f3e3d5ffd5b505050505f5f9054906101000a900473ffffffffffffffffffffffffffffffffffffffff1673ffffffffffffffffffffffffffffffffffffffff1663a9059cbb8e8e6040518363ffffffff1660e01b81526004016105a99291906113e9565b6020604051808303815f875af11580156105c5573d5f5f3e3d5ffd5b505050506040513d601f19601f820116820180604052508101906105e99190611424565b508c73ffffffffffffffffffffffffffffffffffffffff168e73ffffffffffffffffffffffffffffffffffffffff16867fa6d874e300500475fae8b470bbb1fd3282ebb6d4fd6682ecb7786416b0888cea8f604051610648919061144f565b60405180910390a450505050505b505050505050505050565b6002602052805f5260405f205f91509050805f015f9054906101000a900460ff16908060020154905082565b60035f9054906101000a900473ffffffffffffffffffffffffffffffffffffffff1673ffffffffffffffffffffffffffffffffffffffff163373ffffffffffffffffffffffffffffffffffffffff161461071c576040517f08c379a0000000000000000000000000000000000000000000000000000000008152600401610713906114b2565b60405180910390fd5b5f60025f8481526020019081526020015f20905060028081111561074357610742610b89565b5b815f015f9054906101000a900460ff16600281111561076557610764610b89565b5b146107a5576040517f08c379a000000000000000000000000000000000000000000000000000000000815260040161079c9061151a565b60405180910390fd5b8115610810576001815f015f6101000a81548160ff021916908360028111156107d1576107d0610b89565b5b0217905550827f6e96131bfb5bb670b97602baedf459f6825cf7c95f42455455220745dbafd75f600160405161080791906112be565b60405180910390a25b505050565b5f60605f60025f8581526020019081526020015f209050805f015f9054906101000a900460ff168160010180805480602002602001604051908101604052809291908181526020015f905b828210156108dd578382905f5260205f2090600302016040518060600160405290815f8201548152602001600182015f9054906101000a900460ff1660028111156108ae576108ad610b89565b5b60028111156108c0576108bf610b89565b5b815260200160028201548152505081526020019060010190610860565b5050505090509250925050915091565b60015f9054906101000a900473ffffffffffffffffffffffffffffffffffffffff1681565b5f8484848460405160200161092a94939291906115bd565b604051602081830303815290604052805190602001209050949350505050565b60035f9054906101000a900473ffffffffffffffffffffffffffffffffffffffff1681565b5f5f9054906101000a900473ffffffffffffffffffffffffffffffffffffffff1681565b5f604051905090565b5f5ffd5b5f5ffd5b5f73ffffffffffffffffffffffffffffffffffffffff82169050919050565b5f6109cd826109a4565b9050919050565b6109dd816109c3565b81146109e7575f5ffd5b50565b5f813590506109f8816109d4565b92915050565b5f819050919050565b610a10816109fe565b8114610a1a575f5ffd5b50565b5f81359050610a2b81610a07565b92915050565b5f819050919050565b610a4381610a31565b8114610a4d575f5ffd5b50565b5f81359050610a5e81610a3a565b92915050565b5f60ff82169050919050565b610a7981610a64565b8114610a83575f5ffd5b50565b5f81359050610a9481610a70565b92915050565b5f5f5f5f5f5f5f5f5f6101208a8c031215610ab857610ab761099c565b5b5f610ac58c828d016109ea565b9950506020610ad68c828d016109ea565b9850506040610ae78c828d01610a1d565b9750506060610af88c828d01610a1d565b9650506080610b098c828d01610a1d565b95505060a0610b1a8c828d01610a50565b94505060c0610b2b8c828d01610a86565b93505060e0610b3c8c828d01610a50565b925050610100610b4e8c828d01610a50565b9150509295985092959850929598565b5f60208284031215610b7357610b7261099c565b5b5f610b8084828501610a50565b91505092915050565b7f4e487b71000000000000000000000000000000000000000000000000000000005f52602160045260245ffd5b60038110610bc757610bc6610b89565b5b50565b5f819050610bd782610bb6565b919050565b5f610be682610bca565b9050919050565b610bf681610bdc565b82525050565b610c05816109fe565b82525050565b5f604082019050610c1e5f830185610bed565b610c2b6020830184610bfc565b9392505050565b5f8115159050919050565b610c4681610c32565b8114610c50575f5ffd5b50565b5f81359050610c6181610c3d565b92915050565b5f5f60408385031215610c7d57610c7c61099c565b5b5f610c8a85828601610a50565b9250506020610c9b85828601610c53565b9150509250929050565b5f81519050919050565b5f82825260208201905092915050565b5f819050602082019050919050565b610cd781610a31565b82525050565b610ce681610bdc565b82525050565b606082015f820151610d005f850182610cce565b506020820151610d136020850182610cdd565b506040820151610d266040850182610cce565b50505050565b5f610d378383610cec565b60608301905092915050565b5f602082019050919050565b5f610d5982610ca5565b610d638185610caf565b9350610d6e83610cbf565b805f5b83811015610d9e578151610d858882610d2c565b9750610d9083610d43565b925050600181019050610d71565b5085935050505092915050565b5f604082019050610dbe5f830185610bed565b8181036020830152610dd08184610d4f565b90509392505050565b5f819050919050565b5f610dfc610df7610df2846109a4565b610dd9565b6109a4565b9050919050565b5f610e0d82610de2565b9050919050565b5f610e1e82610e03565b9050919050565b610e2e81610e14565b82525050565b5f602082019050610e475f830184610e25565b92915050565b5f5f5f5f60808587031215610e6557610e6461099c565b5b5f610e72878288016109ea565b9450506020610e83878288016109ea565b9350506040610e9487828801610a1d565b9250506060610ea587828801610a50565b91505092959194509250565b610eba81610a31565b82525050565b5f602082019050610ed35f830184610eb1565b92915050565b610ee2816109c3565b82525050565b5f602082019050610efb5f830184610ed9565b92915050565b5f610f0b82610e03565b9050919050565b610f1b81610f01565b82525050565b5f602082019050610f345f830184610f12565b92915050565b610f43816109c3565b82525050565b610f52816109fe565b82525050565b5f81519050919050565b5f82825260208201905092915050565b8281835e5f83830152505050565b5f601f19601f8301169050919050565b5f610f9a82610f58565b610fa48185610f62565b9350610fb4818560208601610f72565b610fbd81610f80565b840191505092915050565b5f60a083015f830151610fdd5f860182610f3a565b506020830151610ff06020860182610f3a565b5060408301516110036040860182610f3a565b5060608301516110166060860182610f49565b506080830151848203608086015261102e8282610f90565b9150508091505092915050565b5f6020820190508181035f8301526110538184610fc8565b905092915050565b60038110611067575f5ffd5b50565b5f815190506110788161105b565b92915050565b5f5ffd5b7f4e487b71000000000000000000000000000000000000000000000000000000005f52604160045260245ffd5b6110b882610f80565b810181811067ffffffffffffffff821117156110d7576110d6611082565b5b80604052505050565b5f6110e9610993565b90506110f582826110af565b919050565b5f67ffffffffffffffff82111561111457611113611082565b5b602082029050602081019050919050565b5f5ffd5b5f5ffd5b5f8151905061113b81610a3a565b92915050565b5f6060828403121561115657611155611129565b5b61116060606110e0565b90505f61116f8482850161112d565b5f8301525060206111828482850161106a565b60208301525060406111968482850161112d565b60408301525092915050565b5f6111b46111af846110fa565b6110e0565b905080838252602082019050606084028301858111156111d7576111d6611125565b5b835b8181101561120057806111ec8882611141565b8452602084019350506060810190506111d9565b5050509392505050565b5f82601f83011261121e5761121d61107e565b5b815161122e8482602086016111a2565b91505092915050565b5f5f6040838503121561124d5761124c61099c565b5b5f61125a8582860161106a565b925050602083015167ffffffffffffffff81111561127b5761127a6109a0565b5b6112878582860161120a565b9150509250929050565b7f4e487b71000000000000000000000000000000000000000000000000000000005f52603260045260245ffd5b5f6020820190506112d15f830184610bed565b92915050565b5f82825260208201905092915050565b7f506f6c69637920436865636b204661696c6564000000000000000000000000005f82015250565b5f61131b6013836112d7565b9150611326826112e7565b602082019050919050565b5f6020820190508181035f8301526113488161130f565b9050919050565b61135881610a64565b82525050565b5f610120820190506113725f83018c610ed9565b61137f602083018b610ed9565b61138c604083018a610bfc565b6113996060830189610bfc565b6113a66080830188610bfc565b6113b360a0830187610eb1565b6113c060c083018661134f565b6113cd60e0830185610eb1565b6113db610100830184610eb1565b9a9950505050505050505050565b5f6040820190506113fc5f830185610ed9565b6114096020830184610bfc565b9392505050565b5f8151905061141e81610c3d565b92915050565b5f602082840312156114395761143861099c565b5b5f61144684828501611410565b91505092915050565b5f6020820190506114625f830184610bfc565b92915050565b7f4f6e6c792061646d696e000000000000000000000000000000000000000000005f82015250565b5f61149c600a836112d7565b91506114a782611468565b602082019050919050565b5f6020820190508181035f8301526114c981611490565b9050919050565b7f4e6f742070656e64696e670000000000000000000000000000000000000000005f82015250565b5f611504600b836112d7565b915061150f826114d0565b602082019050919050565b5f6020820190508181035f830152611531816114f8565b9050919050565b5f8160601b9050919050565b5f61154e82611538565b9050919050565b5f61155f82611544565b9050919050565b611577611572826109c3565b611555565b82525050565b5f819050919050565b611597611592826109fe565b61157d565b82525050565b5f819050919050565b6115b76115b282610a31565b61159d565b82525050565b5f6115c88287611566565b6014820191506115d88286611566565b6014820191506115e88285611586565b6020820191506115f882846115a6565b6020820191508190509594505050505056fea26469706673582212206a17d88090353f8fc3a41e2c9247f4fb1283ea53fdd7d24618e3abb67b762d4864736f6c63430008210033","linkReferences":{}},"methodIdentifiers":{"admin()":"f851a440","attestations(bytes32)":"940992a3","calculateTransactionId(address,address,uint256,bytes32)":"d68e0811","getAttestation(bytes32)":"a3112a64","payWithAuthorization(address,address,uint256,uint256,uint256,bytes32,uint8,bytes32,bytes32)":"71d5bf07","policyManager()":"ab3dbf3b","resolvePending(bytes32,bool)":"9ec8f651","token()":"fc0c546a"},"id":23}