{"abi":[{"type":"constructor","inputs":[],"stateMutability":"nonpayable"},{"type":"function","name":"DOMAIN_SEPARATOR","inputs":[],"outputs":[{"name":"","type":"bytes32","internalType":"bytes32"}],"stateMutability":"view"},{"type":"function","name":"TRANSFER_WITH_AUTHORIZATION_TYPEHASH","inputs":[],"outputs":[{"name":"","type":"bytes32","internalType":"bytes32"}],"stateMutability":"view"},{"type":"function","name":"allowance","inputs":[{"name":"","type":"address","internalType":"address"},{"name":"","type":"address","internalType":"address"}],"outputs":[{"name":"","type":"uint256","internalType":"uint256"}],"stateMutability":"view"},{"type":"function","name":"approve","inputs":[{"name":"spender","type":"address","internalType":"address"},{"name":"value","type":"uint256","internalType":"uint256"}],"outputs":[{"name":"","type":"bool","internalType":"bool"}],"stateMutability":"nonpayable"},{"type":"function","name":"authorizationState","inputs":[{"name":"","type":"address","internalType":"address"},{"name":"","type":"bytes32","internalType":"bytes32"}],"outputs":[{"name":"","type":"bool","internalType":"bool"}],"stateMutability":"view"},{"type":"function","name":"balanceOf","inputs":[{"name":"","type":"address","internalType":"address"}],"outputs":[{"name":"","type":"uint256","internalType":"uint256"}],"stateMutability":"view"},{"type":"function","name":"decimals","inputs":[],"outputs":[{"name":"","type":"uint8","internalType":"uint8"}],"stateMutability":"view"},{"type":"function","name":"mint","inputs":[{"name":"to","type":"address","internalType":"address"},{"name":"amount","type":"uint256","internalType":"uint256"}],"outputs":[],"stateMutability":"nonpayable"},{"type":"function","name":"name","inputs":[],"outputs":[{"name":"","type":"string","internalType":"string"}],"stateMutability":"view"},{"type":"function","name":"symbol","inputs":[],"outputs":[{"name":"","type":"string","internalType":"string"}],"stateMutability":"view"},{"type":"function","name":"totalSupply","inputs":[],"outputs":[{"name":"","type":"uint256","internalType":"uint256"}],"stateMutability":"view"},{"type":"function","name":"transfer","inputs":[{"name":"to","type":"address","internalType":"address"},{"name":"value","type":"uint256","internalType":"uint256"}],"outputs":[{"name":"","type":"bool","internalType":"bool"}],"stateMutability":"nonpayable"},{"type":"function","name":"transferFrom","inputs":[{"name":"from","type":"address","internalType":"address"},{"name":"to","type":"address","internalType":"address"},{"name":"value","type":"uint256","internalType":"uint256"}],"outputs":[{"name":"","type":"bool","internalType":"bool"}],"stateMutability":"nonpayable"},{"type":"function","name":"transferWithAuthorization","inputs":[{"name":"from","type":"address","internalType":"address"},{"name":"to","type":"address","internalType":"address"},{"name":"value","type":"uint256","internalType":"uint256"},{"name":"validAfter","type":"uint256","internalType":"uint256"},{"name":"validBefore","type":"uint256","internalType":"uint256"},{"name":"nonce","type":"bytes32","internalType":"bytes32"},{"name":"v","type":"uint8","internalType":"uint8"},{"name":"r","type":"bytes32","internalType":"bytes32"},{"name":"s","type":"bytes32","internalType":"bytes32"}],"outputs":[],"stateMutability":"nonpayable"},{"type":"event","name":"Approval","inputs":[{"name":"owner","type":"address","indexed":true,"internalType":"address"},{"name":"spender","type":"address","indexed":true,"internalType":"address"},{"name":"value","type":"uint256","indexed":false,"internalType":"uint256"}],"anonymous":false},{"type":"event","name":"AuthorizationUsed","inputs":[{"name":"authorizer","type":"address","indexed":true,"internalType":"address"},{"name":"nonce","type":"bytes32","indexed":true,"internalType":"bytes32"}],"anonymous":false},{"type":"event","name":"Transfer","inputs":[{"name":"from","type":"address","indexed":true,"internalType":"address"},{"name":"to","type":"address","indexed":true,"internalType":"address"},{"name":"value","type":"uint256","indexed":false,"internalType":"uint256"}],"anonymous":false}],"bytecode":{"object":"0x60806040526040518060400160405280601581526020017f44656d6f2053696e6761706f726520446f6c6c617200000000000000000000008152505f908161004791906103b2565b506040518060400160405280600481526020017f44534744000000000000000000000000000000000000000000000000000000008152506001908161008c91906103b2565b50600660025f6101000a81548160ff021916908360ff1602179055503480156100b3575f5ffd5b505f4690507f8b73c3c69bb8fe3d512ecc4cf759cc79239f7b179b0ffacaa9a75d522b39400f5f6040516100e7919061051d565b60405180910390206040518060400160405280600181526020017f3100000000000000000000000000000000000000000000000000000000000000815250805190602001208330604051602001610142959493929190610599565b60405160208183030381529060405280519060200120600781905550506105ea565b5f81519050919050565b7f4e487b71000000000000000000000000000000000000000000000000000000005f52604160045260245ffd5b7f4e487b71000000000000000000000000000000000000000000000000000000005f52602260045260245ffd5b5f60028204905060018216806101df57607f821691505b6020821081036101f2576101f161019b565b5b50919050565b5f819050815f5260205f209050919050565b5f6020601f8301049050919050565b5f82821b905092915050565b5f600883026102547fffffffffffffffffffffffffffffffffffffffffffffffffffffffffffffffff82610219565b61025e8683610219565b95508019841693508086168417925050509392505050565b5f819050919050565b5f819050919050565b5f6102a261029d61029884610276565b61027f565b610276565b9050919050565b5f819050919050565b6102bb83610288565b6102cf6102c7826102a9565b848454610225565b825550505050565b5f5f905090565b6102e66102d7565b6102f18184846102b2565b505050565b5f5b828110156103175761030c5f8284016102de565b6001810190506102f8565b505050565b601f82111561036a578282111561036957610336816101f8565b61033f8361020a565b6103488561020a565b6020861015610355575f90505b808301610364828403826102f6565b505050505b5b505050565b5f82821c905092915050565b5f61038a5f198460080261036f565b1980831691505092915050565b5f6103a2838361037b565b9150826002028217905092915050565b6103bb82610164565b67ffffffffffffffff8111156103d4576103d361016e565b5b6103de82546101c8565b6103e982828561031c565b5f60209050601f83116001811461041a575f8415610408578287015190505b6104128582610397565b865550610479565b601f198416610428866101f8565b5f5b8281101561044f5784890151825560018201915060208501945060208101905061042a565b8683101561046c5784890151610468601f89168261037b565b8355505b6001600288020188555050505b505050505050565b5f81905092915050565b5f819050815f5260205f209050919050565b5f81546104a9816101c8565b6104b38186610481565b9450600182165f81146104cd57600181146104e257610514565b60ff1983168652811515820286019350610514565b6104eb8561048b565b5f5b8381101561050c578154818901526001820191506020810190506104ed565b838801955050505b50505092915050565b5f610528828461049d565b915081905092915050565b5f819050919050565b61054581610533565b82525050565b61055481610276565b82525050565b5f73ffffffffffffffffffffffffffffffffffffffff82169050919050565b5f6105838261055a565b9050919050565b61059381610579565b82525050565b5f60a0820190506105ac5f83018861053c565b6105b9602083018761053c565b6105c6604083018661053c565b6105d3606083018561054b565b6105e0608083018461058a565b9695505050505050565b6118ea806105f75f395ff3fe608060405234801561000f575f5ffd5b50600436106100e8575f3560e01c806370a082311161008a578063a9059cbb11610064578063a9059cbb1461024c578063dd62ed3e1461027c578063e3ee160e146102ac578063e94a0102146102c8576100e8565b806370a08231146101e057806395d89b4114610210578063a0cc6a681461022e576100e8565b806323b872dd116100c657806323b872dd14610158578063313ce567146101885780633644e515146101a657806340c10f19146101c4576100e8565b806306fdde03146100ec578063095ea7b31461010a57806318160ddd1461013a575b5f5ffd5b6100f46102f8565b604051610101919061102d565b60405180910390f35b610124600480360381019061011f91906110de565b610383565b6040516101319190611136565b60405180910390f35b610142610470565b60405161014f919061115e565b60405180910390f35b610172600480360381019061016d9190611177565b610476565b60405161017f9190611136565b60405180910390f35b610190610756565b60405161019d91906111e2565b60405180910390f35b6101ae610768565b6040516101bb9190611213565b60405180910390f35b6101de60048036038101906101d991906110de565b61076e565b005b6101fa60048036038101906101f5919061122c565b610842565b604051610207919061115e565b60405180910390f35b610218610857565b604051610225919061102d565b60405180910390f35b6102366108e3565b6040516102439190611213565b60405180910390f35b610266600480360381019061026191906110de565b610909565b6040516102739190611136565b60405180910390f35b61029660048036038101906102919190611257565b610a9f565b6040516102a3919061115e565b60405180910390f35b6102c660048036038101906102c191906112e9565b610abf565b005b6102e260048036038101906102dd91906113ad565b610f93565b6040516102ef9190611136565b60405180910390f35b5f805461030490611418565b80601f016020809104026020016040519081016040528092919081815260200182805461033090611418565b801561037b5780601f106103525761010080835404028352916020019161037b565b820191905f5260205f20905b81548152906001019060200180831161035e57829003601f168201915b505050505081565b5f8160055f3373ffffffffffffffffffffffffffffffffffffffff1673ffffffffffffffffffffffffffffffffffffffff1681526020019081526020015f205f8573ffffffffffffffffffffffffffffffffffffffff1673ffffffffffffffffffffffffffffffffffffffff1681526020019081526020015f20819055508273ffffffffffffffffffffffffffffffffffffffff163373ffffffffffffffffffffffffffffffffffffffff167f8c5be1e5ebec7d5bd14f71427d1e84f3dd0314c0f7b2291e5b200ac8c7c3b9258460405161045e919061115e565b60405180910390a36001905092915050565b60035481565b5f8160045f8673ffffffffffffffffffffffffffffffffffffffff1673ffffffffffffffffffffffffffffffffffffffff1681526020019081526020015f205410156104f7576040517f08c379a00000000000000000000000000000000000000000000000000000000081526004016104ee90611492565b60405180910390fd5b8160055f8673ffffffffffffffffffffffffffffffffffffffff1673ffffffffffffffffffffffffffffffffffffffff1681526020019081526020015f205f3373ffffffffffffffffffffffffffffffffffffffff1673ffffffffffffffffffffffffffffffffffffffff1681526020019081526020015f205410156105b2576040517f08c379a00000000000000000000000000000000000000000000000000000000081526004016105a9906114fa565b60405180910390fd5b8160055f8673ffffffffffffffffffffffffffffffffffffffff1673ffffffffffffffffffffffffffffffffffffffff1681526020019081526020015f205f3373ffffffffffffffffffffffffffffffffffffffff1673ffffffffffffffffffffffffffffffffffffffff1681526020019081526020015f205f8282546106399190611545565b925050819055508160045f8673ffffffffffffffffffffffffffffffffffffffff1673ffffffffffffffffffffffffffffffffffffffff1681526020019081526020015f205f82825461068c9190611545565b925050819055508160045f8573ffffffffffffffffffffffffffffffffffffffff1673ffffffffffffffffffffffffffffffffffffffff1681526020019081526020015f205f8282546106df9190611578565b925050819055508273ffffffffffffffffffffffffffffffffffffffff168473ffffffffffffffffffffffffffffffffffffffff167fddf252ad1be2c89b69c2b068fc378daa952ba7f163c4a11628f55a4df523b3ef84604051610743919061115e565b60405180910390a3600190509392505050565b60025f9054906101000a900460ff1681565b60075481565b8060035f82825461077f9190611578565b925050819055508060045f8473ffffffffffffffffffffffffffffffffffffffff1673ffffffffffffffffffffffffffffffffffffffff1681526020019081526020015f205f8282546107d29190611578565b925050819055508173ffffffffffffffffffffffffffffffffffffffff165f73ffffffffffffffffffffffffffffffffffffffff167fddf252ad1be2c89b69c2b068fc378daa952ba7f163c4a11628f55a4df523b3ef83604051610836919061115e565b60405180910390a35050565b6004602052805f5260405f205f915090505481565b6001805461086490611418565b80601f016020809104026020016040519081016040528092919081815260200182805461089090611418565b80156108db5780601f106108b2576101008083540402835291602001916108db565b820191905f5260205f20905b8154815290600101906020018083116108be57829003601f168201915b505050505081565b7f7c7c6cdb67a18743f49ec6fa9b35f50d52ed05cbed4cc592e13b44501c1a22675f1b81565b5f8160045f3373ffffffffffffffffffffffffffffffffffffffff1673ffffffffffffffffffffffffffffffffffffffff1681526020019081526020015f2054101561098a576040517f08c379a000000000000000000000000000000000000000000000000000000000815260040161098190611492565b60405180910390fd5b8160045f3373ffffffffffffffffffffffffffffffffffffffff1673ffffffffffffffffffffffffffffffffffffffff1681526020019081526020015f205f8282546109d69190611545565b925050819055508160045f8573ffffffffffffffffffffffffffffffffffffffff1673ffffffffffffffffffffffffffffffffffffffff1681526020019081526020015f205f828254610a299190611578565b925050819055508273ffffffffffffffffffffffffffffffffffffffff163373ffffffffffffffffffffffffffffffffffffffff167fddf252ad1be2c89b69c2b068fc378daa952ba7f163c4a11628f55a4df523b3ef84604051610a8d919061115e565b60405180910390a36001905092915050565b6005602052815f5260405f20602052805f5260405f205f91509150505481565b854211610b01576040517f08c379a0000000000000000000000000000000000000000000000000000000008152600401610af8906115f5565b60405180910390fd5b844210610b43576040517f08c379a0000000000000000000000000000000000000000000000000000000008152600401610b3a9061165d565b60405180910390fd5b60065f8a73ffffffffffffffffffffffffffffffffffffffff1673ffffffffffffffffffffffffffffffffffffffff1681526020019081526020015f205f8581526020019081526020015f205f9054906101000a900460ff1615610bdc576040517f08c379a0000000000000000000000000000000000000000000000000000000008152600401610bd3906116c5565b60405180910390fd5b5f6007547f7c7c6cdb67a18743f49ec6fa9b35f50d52ed05cbed4cc592e13b44501c1a22675f1b8b8b8b8b8b8b604051602001610c1f97969594939291906116f2565b60405160208183030381529060405280519060200120604051602001610c469291906117d3565b6040516020818303038152906040528051906020012090505f6001828686866040515f8152602001604052604051610c819493929190611809565b6020604051602081039080840390855afa158015610ca1573d5f5f3e3d5ffd5b5050506020604051035190505f73ffffffffffffffffffffffffffffffffffffffff168173ffffffffffffffffffffffffffffffffffffffff1614158015610d1457508a73ffffffffffffffffffffffffffffffffffffffff168173ffffffffffffffffffffffffffffffffffffffff16145b610d53576040517f08c379a0000000000000000000000000000000000000000000000000000000008152600401610d4a90611896565b60405180910390fd5b600160065f8d73ffffffffffffffffffffffffffffffffffffffff1673ffffffffffffffffffffffffffffffffffffffff1681526020019081526020015f205f8881526020019081526020015f205f6101000a81548160ff021916908315150217905550858b73ffffffffffffffffffffffffffffffffffffffff167f98de503528ee59b575ef0c0a2576a82497bfc029a5685b209e9ec333479b10a560405160405180910390a38860045f8d73ffffffffffffffffffffffffffffffffffffffff1673ffffffffffffffffffffffffffffffffffffffff1681526020019081526020015f20541015610e7b576040517f08c379a0000000000000000000000000000000000000000000000000000000008152600401610e7290611492565b60405180910390fd5b8860045f8d73ffffffffffffffffffffffffffffffffffffffff1673ffffffffffffffffffffffffffffffffffffffff1681526020019081526020015f205f828254610ec79190611545565b925050819055508860045f8c73ffffffffffffffffffffffffffffffffffffffff1673ffffffffffffffffffffffffffffffffffffffff1681526020019081526020015f205f828254610f1a9190611578565b925050819055508973ffffffffffffffffffffffffffffffffffffffff168b73ffffffffffffffffffffffffffffffffffffffff167fddf252ad1be2c89b69c2b068fc378daa952ba7f163c4a11628f55a4df523b3ef8b604051610f7e919061115e565b60405180910390a35050505050505050505050565b6006602052815f5260405f20602052805f5260405f205f915091509054906101000a900460ff1681565b5f81519050919050565b5f82825260208201905092915050565b8281835e5f83830152505050565b5f601f19601f8301169050919050565b5f610fff82610fbd565b6110098185610fc7565b9350611019818560208601610fd7565b61102281610fe5565b840191505092915050565b5f6020820190508181035f8301526110458184610ff5565b905092915050565b5f5ffd5b5f73ffffffffffffffffffffffffffffffffffffffff82169050919050565b5f61107a82611051565b9050919050565b61108a81611070565b8114611094575f5ffd5b50565b5f813590506110a581611081565b92915050565b5f819050919050565b6110bd816110ab565b81146110c7575f5ffd5b50565b5f813590506110d8816110b4565b92915050565b5f5f604083850312156110f4576110f361104d565b5b5f61110185828601611097565b9250506020611112858286016110ca565b9150509250929050565b5f8115159050919050565b6111308161111c565b82525050565b5f6020820190506111495f830184611127565b92915050565b611158816110ab565b82525050565b5f6020820190506111715f83018461114f565b92915050565b5f5f5f6060848603121561118e5761118d61104d565b5b5f61119b86828701611097565b93505060206111ac86828701611097565b92505060406111bd868287016110ca565b9150509250925092565b5f60ff82169050919050565b6111dc816111c7565b82525050565b5f6020820190506111f55f8301846111d3565b92915050565b5f819050919050565b61120d816111fb565b82525050565b5f6020820190506112265f830184611204565b92915050565b5f602082840312156112415761124061104d565b5b5f61124e84828501611097565b91505092915050565b5f5f6040838503121561126d5761126c61104d565b5b5f61127a85828601611097565b925050602061128b85828601611097565b9150509250929050565b61129e816111fb565b81146112a8575f5ffd5b50565b5f813590506112b981611295565b92915050565b6112c8816111c7565b81146112d2575f5ffd5b50565b5f813590506112e3816112bf565b92915050565b5f5f5f5f5f5f5f5f5f6101208a8c0312156113075761130661104d565b5b5f6113148c828d01611097565b99505060206113258c828d01611097565b98505060406113368c828d016110ca565b97505060606113478c828d016110ca565b96505060806113588c828d016110ca565b95505060a06113698c828d016112ab565b94505060c061137a8c828d016112d5565b93505060e061138b8c828d016112ab565b92505061010061139d8c828d016112ab565b9150509295985092959850929598565b5f5f604083850312156113c3576113c261104d565b5b5f6113d085828601611097565b92505060206113e1858286016112ab565b9150509250929050565b7f4e487b71000000000000000000000000000000000000000000000000000000005f52602260045260245ffd5b5f600282049050600182168061142f57607f821691505b602082108103611442576114416113eb565b5b50919050565b7f496e73756666696369656e742062616c616e63650000000000000000000000005f82015250565b5f61147c601483610fc7565b915061148782611448565b602082019050919050565b5f6020820190508181035f8301526114a981611470565b9050919050565b7f496e73756666696369656e7420616c6c6f77616e6365000000000000000000005f82015250565b5f6114e4601683610fc7565b91506114ef826114b0565b602082019050919050565b5f6020820190508181035f830152611511816114d8565b9050919050565b7f4e487b71000000000000000000000000000000000000000000000000000000005f52601160045260245ffd5b5f61154f826110ab565b915061155a836110ab565b925082820390508181111561157257611571611518565b5b92915050565b5f611582826110ab565b915061158d836110ab565b92508282019050808211156115a5576115a4611518565b5b92915050565b7f417574686f72697a6174696f6e206e6f74207965742076616c696400000000005f82015250565b5f6115df601b83610fc7565b91506115ea826115ab565b602082019050919050565b5f6020820190508181035f83015261160c816115d3565b9050919050565b7f417574686f72697a6174696f6e206578706972656400000000000000000000005f82015250565b5f611647601583610fc7565b915061165282611613565b602082019050919050565b5f6020820190508181035f8301526116748161163b565b9050919050565b7f417574686f72697a6174696f6e20616c726561647920757365640000000000005f82015250565b5f6116af601a83610fc7565b91506116ba8261167b565b602082019050919050565b5f6020820190508181035f8301526116dc816116a3565b9050919050565b6116ec81611070565b82525050565b5f60e0820190506117055f83018a611204565b61171260208301896116e3565b61171f60408301886116e3565b61172c606083018761114f565b611739608083018661114f565b61174660a083018561114f565b61175360c0830184611204565b98975050505050505050565b5f81905092915050565b7f19010000000000000000000000000000000000000000000000000000000000005f82015250565b5f61179d60028361175f565b91506117a882611769565b600282019050919050565b5f819050919050565b6117cd6117c8826111fb565b6117b3565b82525050565b5f6117dd82611791565b91506117e982856117bc565b6020820191506117f982846117bc565b6020820191508190509392505050565b5f60808201905061181c5f830187611204565b61182960208301866111d3565b6118366040830185611204565b6118436060830184611204565b95945050505050565b7f496e76616c6964207369676e61747572650000000000000000000000000000005f82015250565b5f611880601183610fc7565b915061188b8261184c565b602082019050919050565b5f6020820190508181035f8301526118ad81611874565b905091905056fea26469706673582212208a7a21ae1cb168ceffed60d96b668f408a88399b6c33bb0667e8a395cc1c6fa864736f6c63430008210033","linkReferences":{}},"methodIdentifiers":{"DOMAIN_SEPARATOR()":"3644e515","TRANSFER_WITH_AUTHORIZATION_TYPEHASH()":"a0cc6a68","allowance(address,address)":"dd62ed3e","approve(address,uint256)":"095ea7b3","authorizationState(address,bytes32)":"e94a0102","balanceOf(address)":"70a08231","decimals()":"313ce567","mint(address,uint256)":"40c10f19","name()":"06fdde03","symbol()":"95d89b41","totalSupply()":"18160ddd","transfer(address,uint256)":"a9059cbb","transferFrom(address,address,uint256)":"23b872dd","transferWithAuthorization(address,address,uint256,uint256,uint256,bytes32,uint8,bytes32,bytes32)":"e3ee160e"},"id":17}