{"abi":[{"type":"function","name":"POLICY_ID","inputs":[],"outputs":[{"name":"","type":"bytes32","internalType":"bytes32"}],"stateMutability":"view"},{"type":"function","name":"REASON_NOT_VERIFIED","inputs":[],"outputs":[{"name":"","type":"bytes32","internalType":"bytes32"}],"stateMutability":"view"},{"type":"function","name":"evaluate","inputs":[{"name":"ctx","type":"tuple","internalType":"struct IPolicySimple.TxContext","components":[{"name":"token","type":"address","internalType":"address"},{"name":"from","type":"address","internalType":"address"},{"name":"to","type":"address","internalType":"address"},{"name":"amount","type":"uint256","internalType":"uint256"},{"name":"extraData","type":"bytes","internalType":"bytes"}]},{"name":"identityRegistry","type":"address","internalType":"address"}],"outputs":[{"name":"","type":"tuple","internalType":"struct IPolicySimple.PolicyResult","components":[{"name":"policyId","type":"bytes32","internalType":"bytes32"},{"name":"status","type":"uint8","internalType":"enum IPolicySimple.Status"},{"name":"reason","type":"bytes32","internalType":"bytes32"}]}],"stateMutability":"view"},{"type":"function","name":"policyId","inputs":[],"outputs":[{"name":"","type":"bytes32","internalType":"bytes32"}],"stateMutability":"pure"}],"bytecode":{"object":"0x6080604052348015600e575f5ffd5b506105ae8061001c5f395ff3fe608060405234801561000f575f5ffd5b506004361061004a575f3560e01c80635756eb0a1461004e5780639fb5f1781461007e578063db4ef9a61461009c578063ee89ef3a146100ba575b5f5ffd5b6100686004803603810190610063919061035f565b6100d8565b6040516100759190610484565b60405180910390f35b61008661023c565b60405161009391906104ac565b60405180910390f35b6100a4610260565b6040516100b191906104ac565b60405180910390f35b6100c2610284565b6040516100cf91906104ac565b60405180910390f35b6100e06102ab565b8173ffffffffffffffffffffffffffffffffffffffff1663a3a4e2d684602001602081019061010f91906104c5565b6040518263ffffffff1660e01b815260040161012b91906104ff565b602060405180830381865afa158015610146573d5f5f3e3d5ffd5b505050506040513d601f19601f8201168201806040525081019061016a919061054d565b156101c55760405180606001604052807f5b480c0a24ccc4b2cc829e339008a36fda8b0e1710297298e5ddf0edbb73438c81526020015f60028111156101b3576101b26103d1565b5b81526020015f5f1b8152509050610236565b60405180606001604052807f5b480c0a24ccc4b2cc829e339008a36fda8b0e1710297298e5ddf0edbb73438c81526020016001600281111561020a576102096103d1565b5b81526020017f53414e4354494f4e535f4e4f545f56455249464945440000000000000000000081525090505b92915050565b7f53414e4354494f4e535f4e4f545f56455249464945440000000000000000000081565b7f5b480c0a24ccc4b2cc829e339008a36fda8b0e1710297298e5ddf0edbb73438c81565b5f7f5b480c0a24ccc4b2cc829e339008a36fda8b0e1710297298e5ddf0edbb73438c905090565b60405180606001604052805f81526020015f60028111156102cf576102ce6103d1565b5b81526020015f81525090565b5f5ffd5b5f5ffd5b5f5ffd5b5f60a082840312156102fc576102fb6102e3565b5b81905092915050565b5f73ffffffffffffffffffffffffffffffffffffffff82169050919050565b5f61032e82610305565b9050919050565b61033e81610324565b8114610348575f5ffd5b50565b5f8135905061035981610335565b92915050565b5f5f60408385031215610375576103746102db565b5b5f83013567ffffffffffffffff811115610392576103916102df565b5b61039e858286016102e7565b92505060206103af8582860161034b565b9150509250929050565b5f819050919050565b6103cb816103b9565b82525050565b7f4e487b71000000000000000000000000000000000000000000000000000000005f52602160045260245ffd5b6003811061040f5761040e6103d1565b5b50565b5f81905061041f826103fe565b919050565b5f61042e82610412565b9050919050565b61043e81610424565b82525050565b606082015f8201516104585f8501826103c2565b50602082015161046b6020850182610435565b50604082015161047e60408501826103c2565b50505050565b5f6060820190506104975f830184610444565b92915050565b6104a6816103b9565b82525050565b5f6020820190506104bf5f83018461049d565b92915050565b5f602082840312156104da576104d96102db565b5b5f6104e78482850161034b565b91505092915050565b6104f981610324565b82525050565b5f6020820190506105125f8301846104f0565b92915050565b5f8115159050919050565b61052c81610518565b8114610536575f5ffd5b50565b5f8151905061054781610523565b92915050565b5f60208284031215610562576105616102db565b5b5f61056f84828501610539565b9150509291505056fea264697066735822122062355cfaf400871aae791f681ce53ec2ecc6cf727d701fb7bc6d382ca33009f864736f6c63430008210033","linkReferences":{}},"methodIdentifiers":{"POLICY_ID()":"db4ef9a6","REASON_NOT_VERIFIED()":"9fb5f178","evaluate((address,address,address,uint256,bytes),address)":"5756eb0a","policyId()":"ee89ef3a"},"id":19}