{"abi":[{"type":"constructor","inputs":[{"name":"_token","type":"address","internalType":"address"},{"name":"_buyer","type":"address","internalType":"address"},{"name":"_seller","type":"address","internalType":"address"},{"name":"_amount","type":"uint256","internalType":"uint256"},{"name":"_expiresAt","type":"uint256","internalType":"uint256"}],"stateMutability":"nonpayable"},{"type":"function","name":"admin","inputs":[],"outputs":[{"name":"","type":"address","internalType":"address"}],"stateMutability":"view"},{"type":"function","name":"amount","inputs":[],"outputs":[{"name":"","type":"uint256","internalType":"uint256"}],"stateMutability":"view"},{"type":"function","name":"buyer","inputs":[],"outputs":[{"name":"","type":"address","internalType":"address"}],"stateMutability":"view"},{"type":"function","name":"expiresAt","inputs":[],"outputs":[{"name":"","type":"uint256","internalType":"uint256"}],"stateMutability":"view"},{"type":"function","name":"fundWithAuthorization","inputs":[{"name":"validAfter","type":"uint256","internalType":"uint256"},{"name":"validBefore","type":"uint256","internalType":"uint256"},{"name":"nonce","type":"bytes32","internalType":"bytes32"},{"name":"v","type":"uint8","internalType":"uint8"},{"name":"r","type":"bytes32","internalType":"bytes32"},{"name":"s","type":"bytes32","internalType":"bytes32"}],"outputs":[],"stateMutability":"nonpayable"},{"type":"function","name":"refund","inputs":[],"outputs":[],"stateMutability":"nonpayable"},{"type":"function","name":"refunded","inputs":[],"outputs":[{"name":"","type":"bool","internalType":"bool"}],"stateMutability":"view"},{"type":"function","name":"release","inputs":[],"outputs":[],"stateMutability":"nonpayable"},{"type":"function","name":"released","inputs":[],"outputs":[{"name":"","type":"bool","internalType":"bool"}],"stateMutability":"view"},{"type":"function","name":"seller","inputs":[],"outputs":[{"name":"","type":"address","internalType":"address"}],"stateMutability":"view"},{"type":"function","name":"token","inputs":[],"outputs":[{"name":"","type":"address","internalType":"contract DemoSGD"}],"stateMutability":"view"},{"type":"event","name":"Funded","inputs":[{"name":"from","type":"address","indexed":false,"internalType":"address"},{"name":"amount","type":"uint256","indexed":false,"internalType":"uint256"}],"anonymous":false},{"type":"event","name":"Refunded","inputs":[{"name":"to","type":"address","indexed":false,"internalType":"address"},{"name":"amount","type":"uint256","indexed":false,"internalType":"uint256"}],"anonymous":false},{"type":"event","name":"Released","inputs":[{"name":"to","type":"address","indexed":false,"internalType":"address"},{"name":"amount","type":"uint256","indexed":false,"internalType":"uint256"}],"anonymous":false}],"bytecode":{"object":"0x608060405234801561000f575f5ffd5b50604051611182380380611182833981810160405281019061003191906101d9565b845f5f6101000a81548173ffffffffffffffffffffffffffffffffffffffff021916908373ffffffffffffffffffffffffffffffffffffffff1602179055508360015f6101000a81548173ffffffffffffffffffffffffffffffffffffffff021916908373ffffffffffffffffffffffffffffffffffffffff1602179055508260025f6101000a81548173ffffffffffffffffffffffffffffffffffffffff021916908373ffffffffffffffffffffffffffffffffffffffff16021790555081600381905550806004819055503360055f6101000a81548173ffffffffffffffffffffffffffffffffffffffff021916908373ffffffffffffffffffffffffffffffffffffffff1602179055505050505050610250565b5f5ffd5b5f73ffffffffffffffffffffffffffffffffffffffff82169050919050565b5f6101758261014c565b9050919050565b6101858161016b565b811461018f575f5ffd5b50565b5f815190506101a08161017c565b92915050565b5f819050919050565b6101b8816101a6565b81146101c2575f5ffd5b50565b5f815190506101d3816101af565b92915050565b5f5f5f5f5f60a086880312156101f2576101f1610148565b5b5f6101ff88828901610192565b955050602061021088828901610192565b945050604061022188828901610192565b9350506060610232888289016101c5565b9250506080610243888289016101c5565b9150509295509295909350565b610f258061025d5f395ff3fe608060405234801561000f575f5ffd5b50600436106100a7575f3560e01c80638622a6891161006f5780638622a6891461012b57806386d1a69f146101495780639613252114610153578063aa8c217c14610171578063f851a4401461018f578063fc0c546a146101ad576100a7565b806308551a53146100ab57806312f53950146100c9578063590e1ae3146100e75780635a16eaf8146100f15780637150d8ae1461010d575b5f5ffd5b6100b36101cb565b6040516100c09190610a32565b60405180910390f35b6100d16101f0565b6040516100de9190610a65565b60405180910390f35b6100ef610203565b005b61010b60048036038101906101069190610b1e565b6104d4565b005b61011561065a565b6040516101229190610a32565b60405180910390f35b61013361067f565b6040516101409190610bb6565b60405180910390f35b610151610685565b005b61015b610991565b6040516101689190610a65565b60405180910390f35b6101796109a4565b6040516101869190610bb6565b60405180910390f35b6101976109aa565b6040516101a49190610a32565b60405180910390f35b6101b56109cf565b6040516101c29190610c2a565b60405180910390f35b60025f9054906101000a900473ffffffffffffffffffffffffffffffffffffffff1681565b600560159054906101000a900460ff1681565b60055f9054906101000a900473ffffffffffffffffffffffffffffffffffffffff1673ffffffffffffffffffffffffffffffffffffffff163373ffffffffffffffffffffffffffffffffffffffff1614610292576040517f08c379a000000000000000000000000000000000000000000000000000000000815260040161028990610c9d565b60405180910390fd5b600560149054906101000a900460ff161580156102bc5750600560159054906101000a900460ff16155b6102fb576040517f08c379a00000000000000000000000000000000000000000000000000000000081526004016102f290610d05565b60405180910390fd5b6001600560156101000a81548160ff0219169083151502179055505f5f5f9054906101000a900473ffffffffffffffffffffffffffffffffffffffff1673ffffffffffffffffffffffffffffffffffffffff166370a08231306040518263ffffffff1660e01b81526004016103709190610a32565b602060405180830381865afa15801561038b573d5f5f3e3d5ffd5b505050506040513d601f19601f820116820180604052508101906103af9190610d37565b90505f811115610477575f5f9054906101000a900473ffffffffffffffffffffffffffffffffffffffff1673ffffffffffffffffffffffffffffffffffffffff1663a9059cbb60015f9054906101000a900473ffffffffffffffffffffffffffffffffffffffff16836040518363ffffffff1660e01b8152600401610435929190610d62565b6020604051808303815f875af1158015610451573d5f5f3e3d5ffd5b505050506040513d601f19601f820116820180604052508101906104759190610db3565b505b7fd7dee2702d63ad89917b6a4da9981c90c4d24f8c2bdfd64c604ecae57d8d065160015f9054906101000a900473ffffffffffffffffffffffffffffffffffffffff16826040516104c9929190610d62565b60405180910390a150565b600560149054906101000a900460ff161580156104fe5750600560159054906101000a900460ff16155b61053d576040517f08c379a000000000000000000000000000000000000000000000000000000000815260040161053490610d05565b60405180910390fd5b5f5f9054906101000a900473ffffffffffffffffffffffffffffffffffffffff1673ffffffffffffffffffffffffffffffffffffffff1663e3ee160e60015f9054906101000a900473ffffffffffffffffffffffffffffffffffffffff16306003548a8a8a8a8a8a6040518a63ffffffff1660e01b81526004016105c999989796959493929190610dfc565b5f604051808303815f87803b1580156105e0575f5ffd5b505af11580156105f2573d5f5f3e3d5ffd5b505050507f5af8184bef8e4b45eb9f6ed7734d04da38ced226495548f46e0c8ff8d7d9a52460015f9054906101000a900473ffffffffffffffffffffffffffffffffffffffff1660035460405161064a929190610d62565b60405180910390a1505050505050565b60015f9054906101000a900473ffffffffffffffffffffffffffffffffffffffff1681565b60045481565b60055f9054906101000a900473ffffffffffffffffffffffffffffffffffffffff1673ffffffffffffffffffffffffffffffffffffffff163373ffffffffffffffffffffffffffffffffffffffff1614610714576040517f08c379a000000000000000000000000000000000000000000000000000000000815260040161070b90610c9d565b60405180910390fd5b600560149054906101000a900460ff1615801561073e5750600560159054906101000a900460ff16155b61077d576040517f08c379a000000000000000000000000000000000000000000000000000000000815260040161077490610d05565b60405180910390fd5b6003545f5f9054906101000a900473ffffffffffffffffffffffffffffffffffffffff1673ffffffffffffffffffffffffffffffffffffffff166370a08231306040518263ffffffff1660e01b81526004016107d99190610a32565b602060405180830381865afa1580156107f4573d5f5f3e3d5ffd5b505050506040513d601f19601f820116820180604052508101906108189190610d37565b1015610859576040517f08c379a000000000000000000000000000000000000000000000000000000000815260040161085090610ed1565b60405180910390fd5b6001600560146101000a81548160ff0219169083151502179055505f5f9054906101000a900473ffffffffffffffffffffffffffffffffffffffff1673ffffffffffffffffffffffffffffffffffffffff1663a9059cbb60025f9054906101000a900473ffffffffffffffffffffffffffffffffffffffff166003546040518363ffffffff1660e01b81526004016108f2929190610d62565b6020604051808303815f875af115801561090e573d5f5f3e3d5ffd5b505050506040513d601f19601f820116820180604052508101906109329190610db3565b507fb21fb52d5749b80f3182f8c6992236b5e5576681880914484d7f4c9b062e619e60025f9054906101000a900473ffffffffffffffffffffffffffffffffffffffff16600354604051610987929190610d62565b60405180910390a1565b600560149054906101000a900460ff1681565b60035481565b60055f9054906101000a900473ffffffffffffffffffffffffffffffffffffffff1681565b5f5f9054906101000a900473ffffffffffffffffffffffffffffffffffffffff1681565b5f73ffffffffffffffffffffffffffffffffffffffff82169050919050565b5f610a1c826109f3565b9050919050565b610a2c81610a12565b82525050565b5f602082019050610a455f830184610a23565b92915050565b5f8115159050919050565b610a5f81610a4b565b82525050565b5f602082019050610a785f830184610a56565b92915050565b5f5ffd5b5f819050919050565b610a9481610a82565b8114610a9e575f5ffd5b50565b5f81359050610aaf81610a8b565b92915050565b5f819050919050565b610ac781610ab5565b8114610ad1575f5ffd5b50565b5f81359050610ae281610abe565b92915050565b5f60ff82169050919050565b610afd81610ae8565b8114610b07575f5ffd5b50565b5f81359050610b1881610af4565b92915050565b5f5f5f5f5f5f60c08789031215610b3857610b37610a7e565b5b5f610b4589828a01610aa1565b9650506020610b5689828a01610aa1565b9550506040610b6789828a01610ad4565b9450506060610b7889828a01610b0a565b9350506080610b8989828a01610ad4565b92505060a0610b9a89828a01610ad4565b9150509295509295509295565b610bb081610a82565b82525050565b5f602082019050610bc95f830184610ba7565b92915050565b5f819050919050565b5f610bf2610bed610be8846109f3565b610bcf565b6109f3565b9050919050565b5f610c0382610bd8565b9050919050565b5f610c1482610bf9565b9050919050565b610c2481610c0a565b82525050565b5f602082019050610c3d5f830184610c1b565b92915050565b5f82825260208201905092915050565b7f4f6e6c792061646d696e000000000000000000000000000000000000000000005f82015250565b5f610c87600a83610c43565b9150610c9282610c53565b602082019050919050565b5f6020820190508181035f830152610cb481610c7b565b9050919050565b7f416c726561647920636c6f7365640000000000000000000000000000000000005f82015250565b5f610cef600e83610c43565b9150610cfa82610cbb565b602082019050919050565b5f6020820190508181035f830152610d1c81610ce3565b9050919050565b5f81519050610d3181610a8b565b92915050565b5f60208284031215610d4c57610d4b610a7e565b5b5f610d5984828501610d23565b91505092915050565b5f604082019050610d755f830185610a23565b610d826020830184610ba7565b9392505050565b610d9281610a4b565b8114610d9c575f5ffd5b50565b5f81519050610dad81610d89565b92915050565b5f60208284031215610dc857610dc7610a7e565b5b5f610dd584828501610d9f565b91505092915050565b610de781610ab5565b82525050565b610df681610ae8565b82525050565b5f61012082019050610e105f83018c610a23565b610e1d602083018b610a23565b610e2a604083018a610ba7565b610e376060830189610ba7565b610e446080830188610ba7565b610e5160a0830187610dde565b610e5e60c0830186610ded565b610e6b60e0830185610dde565b610e79610100830184610dde565b9a9950505050505050505050565b7f4e6f742066756e646564000000000000000000000000000000000000000000005f82015250565b5f610ebb600a83610c43565b9150610ec682610e87565b602082019050919050565b5f6020820190508181035f830152610ee881610eaf565b905091905056fea2646970667358221220889dafe355b58c3ec2277a6acf8cddb5078203f6505d8a1fb70276f97724dec064736f6c63430008210033","linkReferences":{}},"methodIdentifiers":{"admin()":"f851a440","amount()":"aa8c217c","buyer()":"7150d8ae","expiresAt()":"8622a689","fundWithAuthorization(uint256,uint256,bytes32,uint8,bytes32,bytes32)":"5a16eaf8","refund()":"590e1ae3","refunded()":"12f53950","release()":"86d1a69f","released()":"96132521","seller()":"08551a53","token()":"fc0c546a"},"id":20}